{
  "_format": "hh-sol-artifact-1",
  "contractName": "Deal",
  "sourceName": "contracts/protocol/Deal.sol",
  "abi": [
    {
      "inputs": [
        {
          "internalType": "address",
          "name": "tokenAddress",
          "type": "address"
        },
        {
          "internalType": "address",
          "name": "collateralManagerAddress",
          "type": "address"
        },
        {
          "internalType": "address",
          "name": "feeManagerAddress",
          "type": "address"
        }
      ],
      "stateMutability": "nonpayable",
      "type": "constructor"
    },
    {
      "anonymous": false,
      "inputs": [
        {
          "indexed": true,
          "internalType": "address",
          "name": "client",
          "type": "address"
        },
        {
          "indexed": true,
          "internalType": "address",
          "name": "freelancer",
          "type": "address"
        },
        {
          "indexed": false,
          "internalType": "uint256",
          "name": "dealId",
          "type": "uint256"
        }
      ],
      "name": "AcceptanceDeadlineViolation",
      "type": "event"
    },
    {
      "anonymous": false,
      "inputs": [
        {
          "indexed": true,
          "internalType": "address",
          "name": "client",
          "type": "address"
        },
        {
          "indexed": true,
          "internalType": "address",
          "name": "freelancer",
          "type": "address"
        },
        {
          "indexed": false,
          "internalType": "uint256",
          "name": "dealId",
          "type": "uint256"
        }
      ],
      "name": "ConfirmationDeadlineViolation",
      "type": "event"
    },
    {
      "anonymous": false,
      "inputs": [
        {
          "indexed": true,
          "internalType": "address",
          "name": "client",
          "type": "address"
        },
        {
          "indexed": true,
          "internalType": "address",
          "name": "freelancer",
          "type": "address"
        },
        {
          "indexed": true,
          "internalType": "uint256",
          "name": "dealId",
          "type": "uint256"
        },
        {
          "indexed": false,
          "internalType": "uint32",
          "name": "deadline",
          "type": "uint32"
        },
        {
          "indexed": false,
          "internalType": "uint256",
          "name": "collateral",
          "type": "uint256"
        },
        {
          "indexed": false,
          "internalType": "uint256",
          "name": "reward",
          "type": "uint256"
        },
        {
          "indexed": false,
          "internalType": "string",
          "name": "gigCid",
          "type": "string"
        },
        {
          "indexed": false,
          "internalType": "uint32",
          "name": "timeToReviseInMinutes",
          "type": "uint32"
        },
        {
          "indexed": false,
          "internalType": "uint8",
          "name": "numRevisionsRemaining",
          "type": "uint8"
        }
      ],
      "name": "DealFirstConfirmation",
      "type": "event"
    },
    {
      "anonymous": false,
      "inputs": [
        {
          "indexed": true,
          "internalType": "address",
          "name": "freelancer",
          "type": "address"
        },
        {
          "indexed": true,
          "internalType": "uint256",
          "name": "dealId",
          "type": "uint256"
        }
      ],
      "name": "DealSecondConfirmation",
      "type": "event"
    },
    {
      "anonymous": false,
      "inputs": [
        {
          "indexed": true,
          "internalType": "address",
          "name": "client",
          "type": "address"
        },
        {
          "indexed": true,
          "internalType": "uint256",
          "name": "dealId",
          "type": "uint256"
        }
      ],
      "name": "DelistGig",
      "type": "event"
    },
    {
      "anonymous": false,
      "inputs": [
        {
          "indexed": true,
          "internalType": "address",
          "name": "client",
          "type": "address"
        },
        {
          "indexed": true,
          "internalType": "address",
          "name": "freelancer",
          "type": "address"
        },
        {
          "indexed": true,
          "internalType": "uint256",
          "name": "dealId",
          "type": "uint256"
        },
        {
          "indexed": false,
          "internalType": "string",
          "name": "evidence",
          "type": "string"
        }
      ],
      "name": "Dispute",
      "type": "event"
    },
    {
      "anonymous": false,
      "inputs": [
        {
          "indexed": true,
          "internalType": "uint256",
          "name": "dealId",
          "type": "uint256"
        },
        {
          "indexed": false,
          "internalType": "address",
          "name": "winner",
          "type": "address"
        },
        {
          "indexed": false,
          "internalType": "address",
          "name": "loser",
          "type": "address"
        }
      ],
      "name": "DisputeResolved",
      "type": "event"
    },
    {
      "anonymous": false,
      "inputs": [
        {
          "indexed": true,
          "internalType": "address",
          "name": "client",
          "type": "address"
        },
        {
          "indexed": true,
          "internalType": "address",
          "name": "freelancer",
          "type": "address"
        },
        {
          "indexed": true,
          "internalType": "uint256",
          "name": "dealId",
          "type": "uint256"
        },
        {
          "indexed": false,
          "internalType": "string",
          "name": "feedback",
          "type": "string"
        }
      ],
      "name": "GigAccepted",
      "type": "event"
    },
    {
      "anonymous": false,
      "inputs": [
        {
          "indexed": true,
          "internalType": "address",
          "name": "freelancer",
          "type": "address"
        },
        {
          "indexed": true,
          "internalType": "uint256",
          "name": "dealId",
          "type": "uint256"
        },
        {
          "indexed": false,
          "internalType": "string",
          "name": "submission",
          "type": "string"
        },
        {
          "indexed": false,
          "internalType": "uint32",
          "name": "acceptanceDeadline",
          "type": "uint32"
        }
      ],
      "name": "GigSubmitted",
      "type": "event"
    },
    {
      "anonymous": false,
      "inputs": [
        {
          "indexed": true,
          "internalType": "address",
          "name": "client",
          "type": "address"
        },
        {
          "indexed": true,
          "internalType": "uint256",
          "name": "dealId",
          "type": "uint256"
        },
        {
          "indexed": false,
          "internalType": "uint256",
          "name": "reward",
          "type": "uint256"
        },
        {
          "indexed": false,
          "internalType": "uint32",
          "name": "timeToAcceptInMinutes",
          "type": "uint32"
        },
        {
          "indexed": false,
          "internalType": "string",
          "name": "gigCid",
          "type": "string"
        }
      ],
      "name": "ListGig",
      "type": "event"
    },
    {
      "anonymous": false,
      "inputs": [
        {
          "indexed": true,
          "internalType": "address",
          "name": "previousOwner",
          "type": "address"
        },
        {
          "indexed": true,
          "internalType": "address",
          "name": "newOwner",
          "type": "address"
        }
      ],
      "name": "OwnershipTransferred",
      "type": "event"
    },
    {
      "anonymous": false,
      "inputs": [
        {
          "indexed": true,
          "internalType": "address",
          "name": "client",
          "type": "address"
        },
        {
          "indexed": true,
          "internalType": "address",
          "name": "freelancer",
          "type": "address"
        },
        {
          "indexed": true,
          "internalType": "uint256",
          "name": "dealId",
          "type": "uint256"
        },
        {
          "indexed": false,
          "internalType": "string",
          "name": "instruction",
          "type": "string"
        }
      ],
      "name": "Revision",
      "type": "event"
    },
    {
      "anonymous": false,
      "inputs": [
        {
          "indexed": true,
          "internalType": "uint256",
          "name": "dealId",
          "type": "uint256"
        },
        {
          "indexed": false,
          "internalType": "address",
          "name": "winner",
          "type": "address"
        },
        {
          "indexed": false,
          "internalType": "bool",
          "name": "neither",
          "type": "bool"
        }
      ],
      "name": "Ruling",
      "type": "event"
    },
    {
      "anonymous": false,
      "inputs": [
        {
          "indexed": true,
          "internalType": "address",
          "name": "client",
          "type": "address"
        },
        {
          "indexed": true,
          "internalType": "address",
          "name": "freelancer",
          "type": "address"
        },
        {
          "indexed": false,
          "internalType": "uint256",
          "name": "dealId",
          "type": "uint256"
        }
      ],
      "name": "SubmissionDeadlineViolation",
      "type": "event"
    },
    {
      "inputs": [
        {
          "internalType": "uint256",
          "name": "dealId",
          "type": "uint256"
        },
        {
          "internalType": "string",
          "name": "feedback",
          "type": "string"
        }
      ],
      "name": "accept",
      "outputs": [],
      "stateMutability": "nonpayable",
      "type": "function"
    },
    {
      "inputs": [
        {
          "internalType": "address[]",
          "name": "members",
          "type": "address[]"
        }
      ],
      "name": "addArbitrators",
      "outputs": [],
      "stateMutability": "nonpayable",
      "type": "function"
    },
    {
      "inputs": [
        {
          "internalType": "uint256",
          "name": "dealId",
          "type": "uint256"
        }
      ],
      "name": "callAcceptanceDeadlineViolation",
      "outputs": [],
      "stateMutability": "nonpayable",
      "type": "function"
    },
    {
      "inputs": [
        {
          "internalType": "uint256",
          "name": "dealId",
          "type": "uint256"
        }
      ],
      "name": "callConfirmationDeadlineViolation",
      "outputs": [],
      "stateMutability": "nonpayable",
      "type": "function"
    },
    {
      "inputs": [
        {
          "internalType": "uint256",
          "name": "dealId",
          "type": "uint256"
        },
        {
          "internalType": "string",
          "name": "evidence",
          "type": "string"
        }
      ],
      "name": "callDispute",
      "outputs": [],
      "stateMutability": "nonpayable",
      "type": "function"
    },
    {
      "inputs": [
        {
          "internalType": "uint256",
          "name": "dealId",
          "type": "uint256"
        }
      ],
      "name": "callSubmissionDeadlineViolation",
      "outputs": [],
      "stateMutability": "nonpayable",
      "type": "function"
    },
    {
      "inputs": [
        {
          "internalType": "uint256",
          "name": "dealId",
          "type": "uint256"
        }
      ],
      "name": "delistGig",
      "outputs": [],
      "stateMutability": "nonpayable",
      "type": "function"
    },
    {
      "inputs": [
        {
          "internalType": "uint32",
          "name": "deadline",
          "type": "uint32"
        },
        {
          "internalType": "address",
          "name": "freelancer",
          "type": "address"
        },
        {
          "internalType": "uint256",
          "name": "collateral",
          "type": "uint256"
        },
        {
          "internalType": "uint256",
          "name": "dealId",
          "type": "uint256"
        },
        {
          "internalType": "string",
          "name": "gigCid",
          "type": "string"
        },
        {
          "internalType": "uint32",
          "name": "timeToReviseInMinutes",
          "type": "uint32"
        },
        {
          "internalType": "uint8",
          "name": "numRevisions",
          "type": "uint8"
        }
      ],
      "name": "firstConfirmation",
      "outputs": [],
      "stateMutability": "nonpayable",
      "type": "function"
    },
    {
      "inputs": [
        {
          "internalType": "uint256",
          "name": "dealId",
          "type": "uint256"
        }
      ],
      "name": "getClient",
      "outputs": [
        {
          "internalType": "address",
          "name": "",
          "type": "address"
        }
      ],
      "stateMutability": "view",
      "type": "function"
    },
    {
      "inputs": [],
      "name": "getCompensationPercentage",
      "outputs": [
        {
          "internalType": "uint256",
          "name": "",
          "type": "uint256"
        }
      ],
      "stateMutability": "view",
      "type": "function"
    },
    {
      "inputs": [
        {
          "internalType": "uint256",
          "name": "dealId",
          "type": "uint256"
        }
      ],
      "name": "getDeal",
      "outputs": [
        {
          "components": [
            {
              "internalType": "bool",
              "name": "active",
              "type": "bool"
            },
            {
              "internalType": "bool",
              "name": "confirmed",
              "type": "bool"
            },
            {
              "internalType": "bool",
              "name": "submitted",
              "type": "bool"
            },
            {
              "internalType": "bool",
              "name": "inDispute",
              "type": "bool"
            },
            {
              "internalType": "bool",
              "name": "confirmationDeadlineViolated",
              "type": "bool"
            },
            {
              "internalType": "uint8",
              "name": "numRevisionsRemaining",
              "type": "uint8"
            },
            {
              "internalType": "uint32",
              "name": "timeToReviseInMinutes",
              "type": "uint32"
            },
            {
              "internalType": "address",
              "name": "client",
              "type": "address"
            },
            {
              "internalType": "address",
              "name": "freelancer",
              "type": "address"
            },
            {
              "internalType": "uint32",
              "name": "timeToAcceptInMinutes",
              "type": "uint32"
            },
            {
              "components": [
                {
                  "internalType": "uint32",
                  "name": "submissionDeadline",
                  "type": "uint32"
                },
                {
                  "internalType": "uint32",
                  "name": "acceptanceDeadline",
                  "type": "uint32"
                },
                {
                  "internalType": "uint32",
                  "name": "confirmationDeadline",
                  "type": "uint32"
                }
              ],
              "internalType": "struct DealStorage.Deadline",
              "name": "deadline",
              "type": "tuple"
            },
            {
              "internalType": "uint256",
              "name": "collateral",
              "type": "uint256"
            },
            {
              "internalType": "uint256",
              "name": "reward",
              "type": "uint256"
            },
            {
              "internalType": "string",
              "name": "submission",
              "type": "string"
            },
            {
              "internalType": "string",
              "name": "gigCid",
              "type": "string"
            }
          ],
          "internalType": "struct DealStorage.Deal",
          "name": "",
          "type": "tuple"
        }
      ],
      "stateMutability": "view",
      "type": "function"
    },
    {
      "inputs": [],
      "name": "getDeals",
      "outputs": [
        {
          "components": [
            {
              "internalType": "bool",
              "name": "active",
              "type": "bool"
            },
            {
              "internalType": "bool",
              "name": "confirmed",
              "type": "bool"
            },
            {
              "internalType": "bool",
              "name": "submitted",
              "type": "bool"
            },
            {
              "internalType": "bool",
              "name": "inDispute",
              "type": "bool"
            },
            {
              "internalType": "bool",
              "name": "confirmationDeadlineViolated",
              "type": "bool"
            },
            {
              "internalType": "uint8",
              "name": "numRevisionsRemaining",
              "type": "uint8"
            },
            {
              "internalType": "uint32",
              "name": "timeToReviseInMinutes",
              "type": "uint32"
            },
            {
              "internalType": "address",
              "name": "client",
              "type": "address"
            },
            {
              "internalType": "address",
              "name": "freelancer",
              "type": "address"
            },
            {
              "internalType": "uint32",
              "name": "timeToAcceptInMinutes",
              "type": "uint32"
            },
            {
              "components": [
                {
                  "internalType": "uint32",
                  "name": "submissionDeadline",
                  "type": "uint32"
                },
                {
                  "internalType": "uint32",
                  "name": "acceptanceDeadline",
                  "type": "uint32"
                },
                {
                  "internalType": "uint32",
                  "name": "confirmationDeadline",
                  "type": "uint32"
                }
              ],
              "internalType": "struct DealStorage.Deadline",
              "name": "deadline",
              "type": "tuple"
            },
            {
              "internalType": "uint256",
              "name": "collateral",
              "type": "uint256"
            },
            {
              "internalType": "uint256",
              "name": "reward",
              "type": "uint256"
            },
            {
              "internalType": "string",
              "name": "submission",
              "type": "string"
            },
            {
              "internalType": "string",
              "name": "gigCid",
              "type": "string"
            }
          ],
          "internalType": "struct DealStorage.Deal[]",
          "name": "",
          "type": "tuple[]"
        }
      ],
      "stateMutability": "view",
      "type": "function"
    },
    {
      "inputs": [
        {
          "internalType": "uint256",
          "name": "dealId",
          "type": "uint256"
        }
      ],
      "name": "getDeposit",
      "outputs": [
        {
          "internalType": "uint256",
          "name": "",
          "type": "uint256"
        }
      ],
      "stateMutability": "view",
      "type": "function"
    },
    {
      "inputs": [
        {
          "internalType": "uint256",
          "name": "dealId",
          "type": "uint256"
        }
      ],
      "name": "getFreelancer",
      "outputs": [
        {
          "internalType": "address",
          "name": "",
          "type": "address"
        }
      ],
      "stateMutability": "view",
      "type": "function"
    },
    {
      "inputs": [
        {
          "internalType": "uint256",
          "name": "dealId",
          "type": "uint256"
        }
      ],
      "name": "getReward",
      "outputs": [
        {
          "internalType": "uint256",
          "name": "",
          "type": "uint256"
        }
      ],
      "stateMutability": "view",
      "type": "function"
    },
    {
      "inputs": [
        {
          "internalType": "address",
          "name": "arbitrator",
          "type": "address"
        }
      ],
      "name": "isArbitrator",
      "outputs": [
        {
          "internalType": "bool",
          "name": "",
          "type": "bool"
        }
      ],
      "stateMutability": "view",
      "type": "function"
    },
    {
      "inputs": [
        {
          "internalType": "uint256",
          "name": "reward",
          "type": "uint256"
        },
        {
          "internalType": "uint32",
          "name": "timeToAcceptInMinutes",
          "type": "uint32"
        },
        {
          "internalType": "string",
          "name": "gigCid",
          "type": "string"
        }
      ],
      "name": "listGig",
      "outputs": [],
      "stateMutability": "nonpayable",
      "type": "function"
    },
    {
      "inputs": [],
      "name": "owner",
      "outputs": [
        {
          "internalType": "address",
          "name": "",
          "type": "address"
        }
      ],
      "stateMutability": "view",
      "type": "function"
    },
    {
      "inputs": [
        {
          "internalType": "address[]",
          "name": "members",
          "type": "address[]"
        }
      ],
      "name": "removeArbitrators",
      "outputs": [],
      "stateMutability": "nonpayable",
      "type": "function"
    },
    {
      "inputs": [],
      "name": "renounceOwnership",
      "outputs": [],
      "stateMutability": "nonpayable",
      "type": "function"
    },
    {
      "inputs": [
        {
          "internalType": "uint256",
          "name": "dealId",
          "type": "uint256"
        },
        {
          "internalType": "address",
          "name": "winner",
          "type": "address"
        },
        {
          "internalType": "bool",
          "name": "neither",
          "type": "bool"
        }
      ],
      "name": "resolveDispute",
      "outputs": [],
      "stateMutability": "nonpayable",
      "type": "function"
    },
    {
      "inputs": [
        {
          "internalType": "uint256",
          "name": "dealId",
          "type": "uint256"
        },
        {
          "internalType": "string",
          "name": "instructions",
          "type": "string"
        }
      ],
      "name": "revise",
      "outputs": [],
      "stateMutability": "nonpayable",
      "type": "function"
    },
    {
      "inputs": [
        {
          "internalType": "uint256",
          "name": "dealId",
          "type": "uint256"
        }
      ],
      "name": "secondConfirmation",
      "outputs": [],
      "stateMutability": "nonpayable",
      "type": "function"
    },
    {
      "inputs": [
        {
          "internalType": "uint256",
          "name": "compensation",
          "type": "uint256"
        }
      ],
      "name": "setCompensationPercentage",
      "outputs": [],
      "stateMutability": "nonpayable",
      "type": "function"
    },
    {
      "inputs": [
        {
          "internalType": "uint256",
          "name": "dealId",
          "type": "uint256"
        },
        {
          "internalType": "string",
          "name": "submission",
          "type": "string"
        }
      ],
      "name": "submit",
      "outputs": [],
      "stateMutability": "nonpayable",
      "type": "function"
    },
    {
      "inputs": [
        {
          "internalType": "address",
          "name": "newOwner",
          "type": "address"
        }
      ],
      "name": "transferOwnership",
      "outputs": [],
      "stateMutability": "nonpayable",
      "type": "function"
    },
    {
      "inputs": [
        {
          "internalType": "uint256",
          "name": "dealId",
          "type": "uint256"
        },
        {
          "internalType": "address",
          "name": "winner",
          "type": "address"
        },
        {
          "internalType": "bool",
          "name": "neither",
          "type": "bool"
        }
      ],
      "name": "voteRuling",
      "outputs": [],
      "stateMutability": "nonpayable",
      "type": "function"
    }
  ],
  "bytecode": "0x6080604052601e6006553480156200001657600080fd5b5060405162004536380380620045368339810160408190526200003991620000dc565b600280546001600160a01b0319163390811790915560405181906000907f8be0079c531659141344cd1fd0a4f28419497f9722a3daafe3b4186f6b6457e0908290a350600380546001600160a01b039485166001600160a01b03199182161790915560058054938516938216939093179092556004805491909316911617905562000125565b80516001600160a01b0381168114620000d757600080fd5b919050565b600080600060608486031215620000f1578283fd5b620000fc84620000bf565b92506200010c60208501620000bf565b91506200011c60408501620000bf565b90509250925092565b61440180620001356000396000f3fe608060405234801561001057600080fd5b50600436106101a85760003560e01c80637d2bdd82116100f9578063c57b6c8911610097578063e97ed3a411610071578063e97ed3a4146103a7578063f2fde38b146103ba578063f6e3fb06146103cd578063fbfa3610146103e057600080fd5b8063c57b6c891461036e578063d0068f8014610381578063d6060cbf1461039457600080fd5b806393fb9f58116100d357806393fb9f58146102f957806399675f651461030c5780639f6bd2a91461031f5780639f9fb9681461035b57600080fd5b80637d2bdd82146102a157806382fd5bac146102b45780638da5cb5b146102d457600080fd5b80633d243e8b116101665780635d63f6c6116101405780635d63f6c61461026057806364db84e614610273578063715018a61461028657806372e7fe441461028e57600080fd5b80633d243e8b1461022557806344c3d3fb146102385780635a5539de1461024b57600080fd5b806292f788146101ad5780630184a3a6146101c25780630617a3ae146101d957806318ca3e24146101ec57806319ef1591146101ff5780631c4b774b14610212575b600080fd5b6101c06101bb366004613d07565b6103f3565b005b6006545b6040519081526020015b60405180910390f35b6101c06101e7366004613d07565b610713565b6101c06101fa366004613d07565b610969565b6101c061020d366004613c58565b610c8a565b6101c6610220366004613d07565b610d2d565b6101c0610233366004613d7a565b610d68565b6101c0610246366004613d7a565b610eb4565b610253611172565b6040516101d0919061406d565b6101c061026e366004613d7a565b6113f1565b6101c0610281366004613d37565b611700565b6101c0611c35565b6101c061029c366004613c58565b611ca9565b6101c06102af366004613d07565b611d49565b6102c76102c2366004613d07565b611d78565b6040516101d091906141b3565b6002546001600160a01b03165b6040516001600160a01b0390911681526020016101d0565b6101c0610307366004613d7a565b61206e565b6101c061031a366004613e14565b6123ae565b61034b61032d366004613c3e565b6001600160a01b031660009081526001602052604090205460ff1690565b60405190151581526020016101d0565b6101c6610369366004613d07565b612837565b6101c061037c366004613d37565b6128c0565b6102e161038f366004613d07565b612ad1565b6101c06103a2366004613d07565b612b1a565b6101c06103b5366004613d07565b612f50565b6101c06103c8366004613c3e565b613205565b6102e16103db366004613d07565b6132f0565b6101c06103ee366004613dbf565b613335565b80336001600160a01b03166000828154811061041f57634e487b7160e01b600052603260045260246000fd5b60009182526020909120600160079092020101546001600160a01b0316146104625760405162461bcd60e51b815260040161045990614167565b60405180910390fd5b816000818154811061048457634e487b7160e01b600052603260045260246000fd5b600091825260209091206007909102015460ff1615156001146104b95760405162461bcd60e51b815260040161045990614109565b600083815481106104da57634e487b7160e01b600052603260045260246000fd5b600091825260209091206007909102015462010000900460ff1615156001146105395760405162461bcd60e51b8152602060048201526011602482015270139bdd081cdd589b5a5d1d1959081e595d607a1b6044820152606401610459565b6000838154811061055a57634e487b7160e01b600052603260045260246000fd5b60009182526020909120600790910201546301000000900460ff16156105e05760405162461bcd60e51b815260206004820152603560248201527f43616e6e6f742063616c6c20646561646c696e652076696f6c6174696f6e207760448201527468656e2067696720697320696e206469737075746560581b6064820152608401610459565b6000838154811061060157634e487b7160e01b600052603260045260246000fd5b6000918252602090912060079091020160020154600160201b900463ffffffff1642116106845760405162461bcd60e51b815260206004820152602b60248201527f416363657074616e636520646561646c696e65206861736e74206265656e207660448201526a1a5bdb185d1959081e595d60aa1b6064820152608401610459565b61068d83613804565b336001600160a01b0316600084815481106106b857634e487b7160e01b600052603260045260246000fd5b60009182526020918290206007919091020154604051868152600160501b9091046001600160a01b0316917f71d6c901e522d7366756c21a05f8a0049116e1135636c6446cfa93e4fd558c5a910160405180910390a3505050565b80336001600160a01b03166000828154811061073f57634e487b7160e01b600052603260045260246000fd5b6000918252602090912060079091020154600160501b90046001600160a01b03161461077d5760405162461bcd60e51b81526004016104599061418f565b6000828154811061079e57634e487b7160e01b600052603260045260246000fd5b6000918252602090912060079091020160020154600160401b900463ffffffff1642116108235760405162461bcd60e51b815260206004820152602d60248201527f436f6e6669726d6174696f6e20646561646c696e65206861736e74206265656e60448201526c081d9a5bdb185d1959081e595d609a1b6064820152608401610459565b6000828154811061084457634e487b7160e01b600052603260045260246000fd5b6000918252602090912060079091020154610100900460ff16156108a35760405162461bcd60e51b8152602060048201526016602482015275105b1c9958591e4818dbdb999a5c9b5959081919585b60521b6044820152606401610459565b6001600083815481106108c657634e487b7160e01b600052603260045260246000fd5b6000918252602082206007909102018054921515600160201b0264ff00000000199093169290921790915580548390811061091157634e487b7160e01b600052603260045260246000fd5b6000918252602091829020600790910201600101546040518481526001600160a01b039091169133917f425868bfce947e81fff226862cc23c2f840bb0373a87f8c7b4250c1804e2cee6910160405180910390a35050565b80336001600160a01b03166000828154811061099557634e487b7160e01b600052603260045260246000fd5b60009182526020909120600160079092020101546001600160a01b0316146109cf5760405162461bcd60e51b815260040161045990614167565b81600081815481106109f157634e487b7160e01b600052603260045260246000fd5b600091825260209091206007909102015460ff161515600114610a265760405162461bcd60e51b815260040161045990614109565b60008381548110610a4757634e487b7160e01b600052603260045260246000fd5b6000918252602090912060079091020154600160201b900460ff1615610aba5760405162461bcd60e51b815260206004820152602260248201527f436f6e6669726d6174696f6e20646561646c696e65207761732076696f6c6174604482015261195960f21b6064820152608401610459565b60008381548110610adb57634e487b7160e01b600052603260045260246000fd5b6000918252602090912060079091020154610100900460ff1615610b395760405162461bcd60e51b815260206004820152601560248201527411da59c8185b1c9958591e4818dbdb999a5c9b5959605a1b6044820152606401610459565b600160008481548110610b5c57634e487b7160e01b600052603260045260246000fd5b60009182526020822060079091020180549215156101000261ff00199093169290921790915560055481546001600160a01b03909116916347a7d1079186908110610bb757634e487b7160e01b600052603260045260246000fd5b6000918252602082206001600790920201015481546001600160a01b03909116919087908110610bf757634e487b7160e01b600052603260045260246000fd5b9060005260206000209060070201600301546040518363ffffffff1660e01b8152600401610c26929190614054565b600060405180830381600087803b158015610c4057600080fd5b505af1158015610c54573d6000803e3d6000fd5b50506040518592503391507f982546a323ff36f71674c1e9fab3b17d701ad95fdfe7a8a44292081a39e8c7db90600090a3505050565b6002546001600160a01b03163314610cb45760405162461bcd60e51b815260040161045990614132565b60005b8151811015610d29576001806000848481518110610ce557634e487b7160e01b600052603260045260246000fd5b6020908102919091018101516001600160a01b03168252810191909152604001600020805460ff191691151591909117905580610d2181614384565b915050610cb7565b5050565b6000808281548110610d4f57634e487b7160e01b600052603260045260246000fd5b9060005260206000209060070201600401549050919050565b81336001600160a01b031660008281548110610d9457634e487b7160e01b600052603260045260246000fd5b6000918252602090912060079091020154600160501b90046001600160a01b031614610dd25760405162461bcd60e51b81526004016104599061418f565b8260008181548110610df457634e487b7160e01b600052603260045260246000fd5b600091825260209091206007909102015460ff161515600114610e295760405162461bcd60e51b815260040161045990614109565b610e3284613804565b8360008581548110610e5457634e487b7160e01b600052603260045260246000fd5b60009182526020909120600160079092020101546040516001600160a01b039091169033907f4342e0856fdf39d79cbe2fd073d33563bcdea472ca658baca58e748ecdf1107090610ea69088906140ce565b60405180910390a450505050565b81336001600160a01b031660008281548110610ee057634e487b7160e01b600052603260045260246000fd5b6000918252602090912060079091020154600160501b90046001600160a01b031614610f1e5760405162461bcd60e51b81526004016104599061418f565b6000808481548110610f4057634e487b7160e01b600052603260045260246000fd5b6000918252602090912060079091020154600160281b900460ff1611610f9c5760405162461bcd60e51b8152602060048201526011602482015270139bc81c995d9a5cda5bdb9cc81b19599d607a1b6044820152606401610459565b6000808481548110610fbe57634e487b7160e01b600052603260045260246000fd5b6000918252602082206007909102018054921515620100000262ff0000199093169290921790915580548490811061100657634e487b7160e01b600052603260045260246000fd5b600091825260209091206007909102015461102f90600160301b900463ffffffff16603c6142e3565b611039904261427c565b6000848154811061105a57634e487b7160e01b600052603260045260246000fd5b906000526020600020906007020160020160000160006101000a81548163ffffffff021916908363ffffffff1602179055506001600084815481106110af57634e487b7160e01b600052603260045260246000fd5b6000918252602090912060079091020180546005906110d9908490600160281b900460ff16614326565b92506101000a81548160ff021916908360ff160217905550826000848154811061111357634e487b7160e01b600052603260045260246000fd5b60009182526020909120600160079092020101546040516001600160a01b039091169033907f599d2f02949598ce915333f17844e06787466981d93bcd5c4c08f7baea93a29f906111659087906140ce565b60405180910390a4505050565b60606000805480602002602001604051908101604052809291908181526020016000905b828210156113e8576000848152602090819020604080516101e08101825260078602909201805460ff80821615158552610100808304821615158688015262010000830482161515868601526301000000830482161515606080880191909152600160201b808504841615156080890152600160281b850490931660a088015263ffffffff600160301b8504811660c08901526001600160a01b03600160501b909504851660e0890152600186015494851692880192909252600160a01b90930481166101208701528451928301855260028401548082168452918204811696830196909652600160401b900490941691840191909152610140820192909252600382015461016082015260048201546101808201526005820180549192916101a0840191906112c590614349565b80601f01602080910402602001604051908101604052809291908181526020018280546112f190614349565b801561133e5780601f106113135761010080835404028352916020019161133e565b820191906000526020600020905b81548152906001019060200180831161132157829003601f168201915b5050505050815260200160068201805461135790614349565b80601f016020809104026020016040519081016040528092919081815260200182805461138390614349565b80156113d05780601f106113a5576101008083540402835291602001916113d0565b820191906000526020600020905b8154815290600101906020018083116113b357829003601f168201915b50505050508152505081526020019060010190611196565b50505050905090565b81336001600160a01b03166000828154811061141d57634e487b7160e01b600052603260045260246000fd5b60009182526020909120600160079092020101546001600160a01b0316146114575760405162461bcd60e51b815260040161045990614167565b826000818154811061147957634e487b7160e01b600052603260045260246000fd5b600091825260209091206007909102015460ff1615156001146114ae5760405162461bcd60e51b815260040161045990614109565b600084815481106114cf57634e487b7160e01b600052603260045260246000fd5b600091825260209091206007909102015460ff61010090910416151560011461153a5760405162461bcd60e51b815260206004820152601d60248201527f4465616c206861736e74206265656e20636f6e6669726d6564207965740000006044820152606401610459565b826000858154811061155c57634e487b7160e01b600052603260045260246000fd5b90600052602060002090600702016005019080519060200190611580929190613b0a565b506001600085815481106115a457634e487b7160e01b600052603260045260246000fd5b6000918252602082206007909102018054921515620100000262ff000019909316929092179091558054859081106115ec57634e487b7160e01b600052603260045260246000fd5b600091825260209091206007909102016001015461161890600160a01b900463ffffffff16603c6142e3565b611622904261427c565b6000858154811061164357634e487b7160e01b600052603260045260246000fd5b906000526020600020906007020160020160000160046101000a81548163ffffffff021916908363ffffffff16021790555083336001600160a01b03167fbfb8b169b416ea8fc9884f5894c3cdfb05c9d0040b22d5785d959450f6a9091d85600088815481106116c357634e487b7160e01b600052603260045260246000fd5b60009182526020909120600790910201600201546040516116f29291600160201b900463ffffffff16906140e1565b60405180910390a350505050565b6002546001600160a01b0316331461172a5760405162461bcd60e51b815260040161045990614132565b600080848154811061174c57634e487b7160e01b600052603260045260246000fd5b9060005260206000209060070201600001600a9054906101000a90046001600160a01b03169050600080858154811061179557634e487b7160e01b600052603260045260246000fd5b6000918252602082206001600790920201015481546001600160a01b03909116925081908190889081106117d957634e487b7160e01b600052603260045260246000fd5b90600052602060002090600702016003015490506000878154811061180e57634e487b7160e01b600052603260045260246000fd5b60009182526020909120600790910201546301000000900460ff1615156001146118725760405162461bcd60e51b8152602060048201526015602482015274476967206973206e6f7420696e206469737075746560581b6044820152606401610459565b836001600160a01b0316866001600160a01b031614806118a35750826001600160a01b0316866001600160a01b0316145b806118b057506001851515145b61190c5760405162461bcd60e51b815260206004820152602760248201527f57696e6e6572206973206e65697468657220636c69656e74206e6f722066726560448201526632b630b731b2b960c91b6064820152608401610459565b600080888154811061192e57634e487b7160e01b600052603260045260246000fd5b60009182526020909120600790910201805491151563010000000263ff00000019909216919091179055841515600114156119d3576005546040516302fe2e9360e31b8152600097508793506001600160a01b03909116906317f174989061199c9087908590600401614054565b600060405180830381600087803b1580156119b657600080fd5b505af11580156119ca573d6000803e3d6000fd5b50505050611be7565b856001600160a01b0316846001600160a01b0316146119f257836119f4565b825b91506000606482600654611a0891906142c4565b611a1291906142a4565b90506000808981548110611a3657634e487b7160e01b600052603260045260246000fd5b60009182526020909120600790910201805460ff19169115159190911790556005546040516302fe2e9360e31b81526001600160a01b03909116906317f1749890611a87908a908690600401614054565b600060405180830381600087803b158015611aa157600080fd5b505af1158015611ab5573d6000803e3d6000fd5b5050600554604051631d47a62d60e01b81526001600160a01b039091169250631d47a62d9150611aeb9086908690600401614054565b600060405180830381600087803b158015611b0557600080fd5b505af1158015611b19573d6000803e3d6000fd5b50506005546040516399c797c560e01b81526001600160a01b0390911692506399c797c59150611b4f908a908c90600401614054565b600060405180830381600087803b158015611b6957600080fd5b505af1158015611b7d573d6000803e3d6000fd5b505060055460405163126d7f2f60e31b81526001600160a01b03909116925063936bf9789150611bb3908a908590600401614054565b600060405180830381600087803b158015611bcd57600080fd5b505af1158015611be1573d6000803e3d6000fd5b50505050505b604080516001600160a01b0380891682528416602082015288917fe1a7c74b62f66920be8ea5c50242d3b2093a1c3ab2262aed114fd0ffdc5e5243910160405180910390a250505050505050565b6002546001600160a01b03163314611c5f5760405162461bcd60e51b815260040161045990614132565b6002546040516000916001600160a01b0316907f8be0079c531659141344cd1fd0a4f28419497f9722a3daafe3b4186f6b6457e0908390a3600280546001600160a01b0319169055565b6002546001600160a01b03163314611cd35760405162461bcd60e51b815260040161045990614132565b60005b8151811015610d2957600060016000848481518110611d0557634e487b7160e01b600052603260045260246000fd5b6020908102919091018101516001600160a01b03168252810191909152604001600020805460ff191691151591909117905580611d4181614384565b915050611cd6565b6002546001600160a01b03163314611d735760405162461bcd60e51b815260040161045990614132565b600655565b611e0a604080516101e0810182526000808252602080830182905282840182905260608084018390526080840183905260a0840183905260c0840183905260e08401839052610100840183905261012084018390528451908101855282815290810182905292830152906101408201908152602001600081526020016000815260200160608152602001606081525090565b60008281548110611e2b57634e487b7160e01b600052603260045260246000fd5b6000918252602091829020604080516101e0810182526007909302909101805460ff80821615158552610100808304821615158688015262010000830482161515868601526301000000830482161515606080880191909152600160201b808504841615156080890152600160281b850490931660a088015263ffffffff600160301b8504811660c08901526001600160a01b03600160501b909504851660e0890152600186015494851692880192909252600160a01b90930481166101208701528451928301855260028401548082168452918204811696830196909652600160401b900490941691840191909152610140820192909252600382015461016082015260048201546101808201526005820180549192916101a084019190611f5390614349565b80601f0160208091040260200160405190810160405280929190818152602001828054611f7f90614349565b8015611fcc5780601f10611fa157610100808354040283529160200191611fcc565b820191906000526020600020905b815481529060010190602001808311611faf57829003601f168201915b50505050508152602001600682018054611fe590614349565b80601f016020809104026020016040519081016040528092919081815260200182805461201190614349565b801561205e5780601f106120335761010080835404028352916020019161205e565b820191906000526020600020905b81548152906001019060200180831161204157829003601f168201915b5050505050815250509050919050565b81336001600160a01b03166000828154811061209a57634e487b7160e01b600052603260045260246000fd5b6000918252602090912060079091020154600160501b90046001600160a01b0316146120d85760405162461bcd60e51b81526004016104599061418f565b82600081815481106120fa57634e487b7160e01b600052603260045260246000fd5b600091825260209091206007909102015460ff16151560011461212f5760405162461bcd60e51b815260040161045990614109565b6000848154811061215057634e487b7160e01b600052603260045260246000fd5b60009182526020909120600790910201546301000000900460ff16156121b85760405162461bcd60e51b815260206004820152601960248201527f47696720697320616c726561647920696e2064697370757465000000000000006044820152606401610459565b600084815481106121d957634e487b7160e01b600052603260045260246000fd5b600091825260209091206007909102015462010000900460ff1615156001146122445760405162461bcd60e51b815260206004820181905260248201527f4e6f207375626d697373696f6e2c2063616e742063616c6c20646973707574656044820152606401610459565b600080858154811061226657634e487b7160e01b600052603260045260246000fd5b906000526020600020906007020160030154905060016000868154811061229d57634e487b7160e01b600052603260045260246000fd5b60009182526020909120600790910201805491151563010000000263ff000000199092169190911790556005546040516347a7d10760e01b81526001600160a01b03909116906347a7d107906122f99033908590600401614054565b600060405180830381600087803b15801561231357600080fd5b505af1158015612327573d6000803e3d6000fd5b50505050846000868154811061234d57634e487b7160e01b600052603260045260246000fd5b60009182526020909120600160079092020101546040516001600160a01b039091169033907f21b0b2851eed7c8721100e8fa0ca4bf22439c35926c78858252bf911c3fc21379061239f9089906140ce565b60405180910390a45050505050565b83336001600160a01b0316600082815481106123da57634e487b7160e01b600052603260045260246000fd5b6000918252602090912060079091020154600160501b90046001600160a01b0316146124185760405162461bcd60e51b81526004016104599061418f565b60006001600160a01b03166000868154811061244457634e487b7160e01b600052603260045260246000fd5b60009182526020909120600160079092020101546001600160a01b031614806124aa57506000858154811061248957634e487b7160e01b600052603260045260246000fd5b6000918252602090912060079091020154600160201b900460ff1615156001145b6124f65760405162461bcd60e51b815260206004820152601b60248201527f416c7265616479207069636b6564206120667265656c616e63657200000000006044820152606401610459565b6000858154811061251757634e487b7160e01b600052603260045260246000fd5b600091825260209091206007909102015460ff16151560011461256d5760405162461bcd60e51b815260206004820152600e60248201526d476967206e6f742061637469766560901b6044820152606401610459565b876000868154811061258f57634e487b7160e01b600052603260045260246000fd5b60009182526020909120600790910201600201805463ffffffff191663ffffffff929092169190911790556125c7426201518061427c565b600086815481106125e857634e487b7160e01b600052603260045260246000fd5b906000526020600020906007020160020160000160086101000a81548163ffffffff021916908363ffffffff160217905550866000868154811061263c57634e487b7160e01b600052603260045260246000fd5b906000526020600020906007020160010160006101000a8154816001600160a01b0302191690836001600160a01b03160217905550856000868154811061269357634e487b7160e01b600052603260045260246000fd5b90600052602060002090600702016003018190555083600086815481106126ca57634e487b7160e01b600052603260045260246000fd5b906000526020600020906007020160060190805190602001906126ee929190613b0a565b50826000868154811061271157634e487b7160e01b600052603260045260246000fd5b906000526020600020906007020160000160066101000a81548163ffffffff021916908363ffffffff160217905550816000868154811061276257634e487b7160e01b600052603260045260246000fd5b906000526020600020906007020160000160056101000a81548160ff021916908360ff16021790555060008086815481106127ad57634e487b7160e01b600052603260045260246000fd5b600091825260209091206007909102018054911515600160201b0264ff0000000019909216919091179055846001600160a01b038816337f553d0bdcd69b5100e06daa12fd750f14444459086a24360bb5d1f91fa65bc5298b8a61281086610d2d565b8a8a8a604051612825969594939291906141eb565b60405180910390a45050505050505050565b600554604051631130331160e01b8152600481018390523060248201526000916001600160a01b03169063113033119060440160206040518083038186803b15801561288257600080fd5b505afa158015612896573d6000803e3d6000fd5b505050506040513d601f19601f820116820180604052508101906128ba9190613d1f565b92915050565b600083815481106128e157634e487b7160e01b600052603260045260246000fd5b60009182526020909120600790910201546301000000900460ff1615156001146129455760405162461bcd60e51b8152602060048201526015602482015274476967206973206e6f7420696e206469737075746560581b6044820152606401610459565b3360009081526001602081905260409091205460ff1615151461299e5760405162461bcd60e51b81526020600482015260116024820152702737ba1030b71030b93134ba3930ba37b960791b6044820152606401610459565b600083815481106129bf57634e487b7160e01b600052603260045260246000fd5b60009182526020909120600160079092020101546001600160a01b0383811691161480612a2f575060008381548110612a0857634e487b7160e01b600052603260045260246000fd5b60009182526020909120600790910201546001600160a01b03838116600160501b90920416145b612a875760405162461bcd60e51b8152602060048201526024808201527f57696e6e6572206e65697468657220636c69656e74206e6f7220667265656c616044820152633731b2b960e11b6064820152608401610459565b604080516001600160a01b0384168152821515602082015284917f1290d50a7755c5a5d16144048e776f6733bfe9e1e4a3be8b6469bb5f8a9ea215910160405180910390a2505050565b6000808281548110612af357634e487b7160e01b600052603260045260246000fd5b6000918252602090912060079091020154600160501b90046001600160a01b031692915050565b80336001600160a01b031660008281548110612b4657634e487b7160e01b600052603260045260246000fd5b6000918252602090912060079091020154600160501b90046001600160a01b031614612b845760405162461bcd60e51b81526004016104599061418f565b8160008181548110612ba657634e487b7160e01b600052603260045260246000fd5b600091825260209091206007909102015460ff161515600114612bdb5760405162461bcd60e51b815260040161045990614109565b60008381548110612bfc57634e487b7160e01b600052603260045260246000fd5b600091825260209091206007909102015462010000900460ff1615612c575760405162461bcd60e51b8152602060048201526011602482015270105b1c9958591e481cdd589b5a5d1d1959607a1b6044820152606401610459565b60008381548110612c7857634e487b7160e01b600052603260045260246000fd5b600091825260209091206002600790920201015463ffffffff164211612cf45760405162461bcd60e51b815260206004820152602b60248201527f5375626d697373696f6e20646561646c696e65206861736e74206265656e207660448201526a1a5bdb185d1959081e595d60aa1b6064820152608401610459565b6000808481548110612d1657634e487b7160e01b600052603260045260246000fd5b90600052602060002090600702016003015490506000808581548110612d4c57634e487b7160e01b600052603260045260246000fd5b6000918252602082206001600790920201015481546001600160a01b039091169250819087908110612d8e57634e487b7160e01b600052603260045260246000fd5b60009182526020909120600790910201805460ff19169115159190911790556005546040516399c797c560e01b81526001600160a01b03909116906399c797c590612ddf9033908990600401614054565b600060405180830381600087803b158015612df957600080fd5b505af1158015612e0d573d6000803e3d6000fd5b50506005546006546001600160a01b03909116925063936bf97891503390612e5690612e4790606490612e41908990613a7e565b90613ac8565b612e508a612837565b90613add565b6040518363ffffffff1660e01b8152600401612e73929190614054565b600060405180830381600087803b158015612e8d57600080fd5b505af1158015612ea1573d6000803e3d6000fd5b5050600554604051631d47a62d60e01b81526001600160a01b039091169250631d47a62d9150612ed79084908690600401614054565b600060405180830381600087803b158015612ef157600080fd5b505af1158015612f05573d6000803e3d6000fd5b50506040518781526001600160a01b03841692503391507f5cbb2942e12da1822d3d5b086fa092c5568e950bedcfcf535d830ef53489c7779060200160405180910390a35050505050565b80336001600160a01b031660008281548110612f7c57634e487b7160e01b600052603260045260246000fd5b6000918252602090912060079091020154600160501b90046001600160a01b031614612fba5760405162461bcd60e51b81526004016104599061418f565b60008281548110612fdb57634e487b7160e01b600052603260045260246000fd5b600091825260209091206007909102015460ff1615156001146130405760405162461bcd60e51b815260206004820152601760248201527f47696720697320616c726561647920696e6163746976650000000000000000006044820152606401610459565b60006001600160a01b03166000838154811061306c57634e487b7160e01b600052603260045260246000fd5b60009182526020909120600160079092020101546001600160a01b031614806130d25750600082815481106130b157634e487b7160e01b600052603260045260246000fd5b6000918252602090912060079091020154600160201b900460ff1615156001145b61312f5760405162461bcd60e51b815260206004820152602860248201527f467265656c616e63657220616c7265616479207069636b65642c2063616e6e6f6044820152671d0819195b1a5cdd60c21b6064820152608401610459565b600080838154811061315157634e487b7160e01b600052603260045260246000fd5b60009182526020909120600790910201805460ff19169115159190911790556005546040516399c797c560e01b81526001600160a01b03909116906399c797c5906131a29033908690600401614054565b600060405180830381600087803b1580156131bc57600080fd5b505af11580156131d0573d6000803e3d6000fd5b50506040518492503391507f0e76a0520564d64f4513a8845956e173f6740449d9fe979113d4f42c6352c28390600090a35050565b6002546001600160a01b0316331461322f5760405162461bcd60e51b815260040161045990614132565b6001600160a01b0381166132945760405162461bcd60e51b815260206004820152602660248201527f4f776e61626c653a206e6577206f776e657220697320746865207a65726f206160448201526564647265737360d01b6064820152608401610459565b6002546040516001600160a01b038084169216907f8be0079c531659141344cd1fd0a4f28419497f9722a3daafe3b4186f6b6457e090600090a3600280546001600160a01b0319166001600160a01b0392909216919091179055565b600080828154811061331257634e487b7160e01b600052603260045260246000fd5b60009182526020909120600160079092020101546001600160a01b031692915050565b60006040518060600160405280600063ffffffff168152602001600063ffffffff168152602001600063ffffffff1681525090506000604051806101e00160405280600115158152602001600015158152602001600015158152602001600015158152602001600015158152602001600060ff168152602001600063ffffffff168152602001336001600160a01b0316815260200160006001600160a01b031681526020018563ffffffff16815260200183815260200160008152602001868152602001604051806020016040528060008152508152602001604051806020016040528060008152508152509050600081908060018154018082558091505060019003906000526020600020906007020160009091909190915060008201518160000160006101000a81548160ff02191690831515021790555060208201518160000160016101000a81548160ff02191690831515021790555060408201518160000160026101000a81548160ff02191690831515021790555060608201518160000160036101000a81548160ff02191690831515021790555060808201518160000160046101000a81548160ff02191690831515021790555060a08201518160000160056101000a81548160ff021916908360ff16021790555060c08201518160000160066101000a81548163ffffffff021916908363ffffffff16021790555060e082015181600001600a6101000a8154816001600160a01b0302191690836001600160a01b031602179055506101008201518160010160006101000a8154816001600160a01b0302191690836001600160a01b031602179055506101208201518160010160146101000a81548163ffffffff021916908363ffffffff1602179055506101408201518160020160008201518160000160006101000a81548163ffffffff021916908363ffffffff16021790555060208201518160000160046101000a81548163ffffffff021916908363ffffffff16021790555060408201518160000160086101000a81548163ffffffff021916908363ffffffff1602179055505050610160820151816003015561018082015181600401556101a082015181600501908051906020019061366e929190613b0a565b506101c0820151805161368b916006840191602090910190613b0a565b5050600080549091506136a09060019061430f565b905060006137396064612e41600460009054906101000a90046001600160a01b03166001600160a01b03166311efbf616040518163ffffffff1660e01b815260040160206040518083038186803b1580156136fa57600080fd5b505afa15801561370e573d6000803e3d6000fd5b505050506040513d601f19601f820116820180604052508101906137329190613d1f565b8a90613a7e565b6005549091506001600160a01b031663362a4dce6137578984613add565b6040516001600160e01b031960e084901b168152600481019190915233602482015260448101859052606401600060405180830381600087803b15801561379d57600080fd5b505af11580156137b1573d6000803e3d6000fd5b5050505081336001600160a01b03167f41e7d5050fd77deb5371c724b7dc233f93efe6a30a383cea0df407951679dfdf8989896040516137f3939291906141c6565b60405180910390a350505050505050565b600080828154811061382657634e487b7160e01b600052603260045260246000fd5b9060005260206000209060070201600401549050600080838154811061385c57634e487b7160e01b600052603260045260246000fd5b60009182526020822060079190910201805460ff19169215159290921790915560055481546001600160a01b03909116916317f1749891859081106138b157634e487b7160e01b600052603260045260246000fd5b6000918252602082206001600790920201015481546001600160a01b039091169190869081106138f157634e487b7160e01b600052603260045260246000fd5b9060005260206000209060070201600301546040518363ffffffff1660e01b8152600401613920929190614054565b600060405180830381600087803b15801561393a57600080fd5b505af115801561394e573d6000803e3d6000fd5b5050600554600080546001600160a01b03909216935063f273e93a925084918690811061398b57634e487b7160e01b600052603260045260246000fd5b600091825260209091206007909102016001015460405160e084901b6001600160e01b031916815260048101929092526001600160a01b0316602482015260448101859052606401600060405180830381600087803b1580156139ed57600080fd5b505af1158015613a01573d6000803e3d6000fd5b50506005546001600160a01b031691506399c797c59050613a2a6002546001600160a01b031690565b846040518363ffffffff1660e01b8152600401613a48929190614054565b600060405180830381600087803b158015613a6257600080fd5b505af1158015613a76573d6000803e3d6000fd5b505050505050565b600082613a8d575060006128ba565b6000613a9983856142c4565b905082613aa685836142a4565b14613ac157634e487b7160e01b600052600160045260246000fd5b9392505050565b600080613ad583856142a4565b949350505050565b600080613aea8385614264565b905083811015613ac157634e487b7160e01b600052600160045260246000fd5b828054613b1690614349565b90600052602060002090601f016020900481019282613b385760008555613b7e565b82601f10613b5157805160ff1916838001178555613b7e565b82800160010185558215613b7e579182015b82811115613b7e578251825591602001919060010190613b63565b50613b8a929150613b8e565b5090565b5b80821115613b8a5760008155600101613b8f565b80356001600160a01b0381168114613bba57600080fd5b919050565b600082601f830112613bcf578081fd5b813567ffffffffffffffff811115613be957613be96143b5565b613bfc601f8201601f1916602001614233565b818152846020838601011115613c10578283fd5b816020850160208301379081016020019190915292915050565b803563ffffffff81168114613bba57600080fd5b600060208284031215613c4f578081fd5b613ac182613ba3565b60006020808385031215613c6a578182fd5b823567ffffffffffffffff80821115613c81578384fd5b818501915085601f830112613c94578384fd5b813581811115613ca657613ca66143b5565b8060051b9150613cb7848301614233565b8181528481019084860184860187018a1015613cd1578788fd5b8795505b83861015613cfa57613ce681613ba3565b835260019590950194918601918601613cd5565b5098975050505050505050565b600060208284031215613d18578081fd5b5035919050565b600060208284031215613d30578081fd5b5051919050565b600080600060608486031215613d4b578182fd5b83359250613d5b60208501613ba3565b915060408401358015158114613d6f578182fd5b809150509250925092565b60008060408385031215613d8c578182fd5b82359150602083013567ffffffffffffffff811115613da9578182fd5b613db585828601613bbf565b9150509250929050565b600080600060608486031215613dd3578283fd5b83359250613de360208501613c2a565b9150604084013567ffffffffffffffff811115613dfe578182fd5b613e0a86828701613bbf565b9150509250925092565b600080600080600080600060e0888a031215613e2e578283fd5b613e3788613c2a565b9650613e4560208901613ba3565b95506040880135945060608801359350608088013567ffffffffffffffff811115613e6e578384fd5b613e7a8a828b01613bbf565b935050613e8960a08901613c2a565b915060c088013560ff81168114613e9e578182fd5b8091505092959891949750929550565b60008151808452815b81811015613ed357602081850181015186830182015201613eb7565b81811115613ee45782602083870101525b50601f01601f19169290920160200192915050565b80511515825260006102206020830151613f17602086018215159052565b506040830151613f2b604086018215159052565b506060830151613f3f606086018215159052565b506080830151613f53608086018215159052565b5060a0830151613f6860a086018260ff169052565b5060c0830151613f8060c086018263ffffffff169052565b5060e0830151613f9b60e08601826001600160a01b03169052565b50610100838101516001600160a01b0381168683015250506101208381015163ffffffff811686830152505061014083810151805163ffffffff908116878401526020820151811661016088015260408201511661018087015250506101608301516101a0818187015261018085015191506101c08281880152818601519250836101e088015261402e84880184613eae565b9350808601519250505084820361020086015261404b8282613eae565b95945050505050565b6001600160a01b03929092168252602082015260400190565b6000602080830181845280855180835260408601915060408160051b8701019250838701855b828110156140c157603f198886030184526140af858351613ef9565b94509285019290850190600101614093565b5092979650505050505050565b602081526000613ac16020830184613eae565b6040815260006140f46040830185613eae565b905063ffffffff831660208301529392505050565b6020808252600f908201526e47696720697320696e61637469766560881b604082015260600190565b6020808252818101527f4f776e61626c653a2063616c6c6572206973206e6f7420746865206f776e6572604082015260600190565b6020808252600e908201526d2737ba10333932b2b630b731b2b960911b604082015260600190565b6020808252600a9082015269139bdd0818db1a595b9d60b21b604082015260600190565b602081526000613ac16020830184613ef9565b83815263ffffffff8316602082015260606040820152600061404b6060830184613eae565b600063ffffffff808916835287602084015286604084015260c0606084015261421760c0840187613eae565b941660808301525060ff9190911660a090910152949350505050565b604051601f8201601f1916810167ffffffffffffffff8111828210171561425c5761425c6143b5565b604052919050565b600082198211156142775761427761439f565b500190565b600063ffffffff80831681851680830382111561429b5761429b61439f565b01949350505050565b6000826142bf57634e487b7160e01b81526012600452602481fd5b500490565b60008160001904831182151516156142de576142de61439f565b500290565b600063ffffffff808316818516818304811182151516156143065761430661439f565b02949350505050565b6000828210156143215761432161439f565b500390565b600060ff821660ff8416808210156143405761434061439f565b90039392505050565b600181811c9082168061435d57607f821691505b6020821081141561437e57634e487b7160e01b600052602260045260246000fd5b50919050565b60006000198214156143985761439861439f565b5060010190565b634e487b7160e01b600052601160045260246000fd5b634e487b7160e01b600052604160045260246000fdfea264697066735822122068caf616e764c981448d016a2bb95dc9e33d399685bf2f74c98687588e36ccab64736f6c63430008040033",
  "linkReferences": {},
  "deployedLinkReferences": {}
}