{
  "_format": "hh-sol-artifact-1",
  "contractName": "CollateralManager",
  "sourceName": "contracts/protocol/CollateralManager.sol",
  "abi": [
    {
      "inputs": [
        {
          "internalType": "address",
          "name": "token",
          "type": "address"
        }
      ],
      "stateMutability": "nonpayable",
      "type": "constructor"
    },
    {
      "anonymous": false,
      "inputs": [
        {
          "indexed": true,
          "internalType": "address",
          "name": "verifiedContracts",
          "type": "address"
        }
      ],
      "name": "ContractAdded",
      "type": "event"
    },
    {
      "anonymous": false,
      "inputs": [
        {
          "indexed": true,
          "internalType": "address",
          "name": "verifiedContracts",
          "type": "address"
        }
      ],
      "name": "ContractRemoved",
      "type": "event"
    },
    {
      "anonymous": false,
      "inputs": [
        {
          "indexed": true,
          "internalType": "address",
          "name": "user",
          "type": "address"
        },
        {
          "indexed": false,
          "internalType": "uint256",
          "name": "amount",
          "type": "uint256"
        }
      ],
      "name": "Deposit",
      "type": "event"
    },
    {
      "anonymous": false,
      "inputs": [
        {
          "indexed": true,
          "internalType": "uint256",
          "name": "dealId",
          "type": "uint256"
        },
        {
          "indexed": false,
          "internalType": "uint256",
          "name": "weiAmount",
          "type": "uint256"
        }
      ],
      "name": "Descrow",
      "type": "event"
    },
    {
      "anonymous": false,
      "inputs": [
        {
          "indexed": true,
          "internalType": "bytes32",
          "name": "escrowId",
          "type": "bytes32"
        },
        {
          "indexed": false,
          "internalType": "uint256",
          "name": "weiAmount",
          "type": "uint256"
        }
      ],
      "name": "Escrow",
      "type": "event"
    },
    {
      "anonymous": false,
      "inputs": [
        {
          "indexed": true,
          "internalType": "address",
          "name": "user",
          "type": "address"
        },
        {
          "indexed": false,
          "internalType": "uint256",
          "name": "amount",
          "type": "uint256"
        }
      ],
      "name": "LockCollateral",
      "type": "event"
    },
    {
      "anonymous": false,
      "inputs": [
        {
          "indexed": true,
          "internalType": "address",
          "name": "previousOwner",
          "type": "address"
        },
        {
          "indexed": true,
          "internalType": "address",
          "name": "newOwner",
          "type": "address"
        }
      ],
      "name": "OwnershipTransferred",
      "type": "event"
    },
    {
      "anonymous": false,
      "inputs": [
        {
          "indexed": true,
          "internalType": "address",
          "name": "user",
          "type": "address"
        },
        {
          "indexed": false,
          "internalType": "uint256",
          "name": "amount",
          "type": "uint256"
        }
      ],
      "name": "Slash",
      "type": "event"
    },
    {
      "anonymous": false,
      "inputs": [
        {
          "indexed": true,
          "internalType": "address",
          "name": "user",
          "type": "address"
        },
        {
          "indexed": false,
          "internalType": "uint256",
          "name": "amount",
          "type": "uint256"
        }
      ],
      "name": "UnlockCollateral",
      "type": "event"
    },
    {
      "anonymous": false,
      "inputs": [
        {
          "indexed": true,
          "internalType": "address",
          "name": "user",
          "type": "address"
        },
        {
          "indexed": false,
          "internalType": "uint256",
          "name": "amount",
          "type": "uint256"
        }
      ],
      "name": "Withdraw",
      "type": "event"
    },
    {
      "inputs": [
        {
          "internalType": "address",
          "name": "verifiedContract",
          "type": "address"
        }
      ],
      "name": "addVerifiedContract",
      "outputs": [],
      "stateMutability": "nonpayable",
      "type": "function"
    },
    {
      "inputs": [
        {
          "internalType": "uint256",
          "name": "amount",
          "type": "uint256"
        }
      ],
      "name": "deposit",
      "outputs": [],
      "stateMutability": "nonpayable",
      "type": "function"
    },
    {
      "inputs": [
        {
          "internalType": "uint256",
          "name": "amount",
          "type": "uint256"
        },
        {
          "internalType": "address",
          "name": "to",
          "type": "address"
        },
        {
          "internalType": "uint256",
          "name": "dealId",
          "type": "uint256"
        }
      ],
      "name": "descrow",
      "outputs": [],
      "stateMutability": "nonpayable",
      "type": "function"
    },
    {
      "inputs": [
        {
          "internalType": "address",
          "name": "to",
          "type": "address"
        },
        {
          "internalType": "uint256",
          "name": "dealId",
          "type": "uint256"
        }
      ],
      "name": "descrowAll",
      "outputs": [],
      "stateMutability": "nonpayable",
      "type": "function"
    },
    {
      "inputs": [
        {
          "internalType": "uint256",
          "name": "amount",
          "type": "uint256"
        },
        {
          "internalType": "address",
          "name": "from",
          "type": "address"
        },
        {
          "internalType": "uint256",
          "name": "dealId",
          "type": "uint256"
        }
      ],
      "name": "escrow",
      "outputs": [],
      "stateMutability": "nonpayable",
      "type": "function"
    },
    {
      "inputs": [
        {
          "internalType": "uint256",
          "name": "dealId",
          "type": "uint256"
        },
        {
          "internalType": "address",
          "name": "dealContract",
          "type": "address"
        }
      ],
      "name": "escrowOf",
      "outputs": [
        {
          "internalType": "uint256",
          "name": "",
          "type": "uint256"
        }
      ],
      "stateMutability": "view",
      "type": "function"
    },
    {
      "inputs": [
        {
          "internalType": "address",
          "name": "user",
          "type": "address"
        }
      ],
      "name": "getCollateral",
      "outputs": [
        {
          "internalType": "uint256",
          "name": "",
          "type": "uint256"
        }
      ],
      "stateMutability": "view",
      "type": "function"
    },
    {
      "inputs": [
        {
          "internalType": "address",
          "name": "user",
          "type": "address"
        }
      ],
      "name": "getDeposit",
      "outputs": [
        {
          "internalType": "uint256",
          "name": "",
          "type": "uint256"
        }
      ],
      "stateMutability": "view",
      "type": "function"
    },
    {
      "inputs": [
        {
          "internalType": "address",
          "name": "user",
          "type": "address"
        },
        {
          "internalType": "uint256",
          "name": "amount",
          "type": "uint256"
        }
      ],
      "name": "increaseAllocation",
      "outputs": [],
      "stateMutability": "nonpayable",
      "type": "function"
    },
    {
      "inputs": [
        {
          "internalType": "address",
          "name": "contractAddress",
          "type": "address"
        }
      ],
      "name": "isVerifiedContract",
      "outputs": [
        {
          "internalType": "bool",
          "name": "",
          "type": "bool"
        }
      ],
      "stateMutability": "view",
      "type": "function"
    },
    {
      "inputs": [
        {
          "internalType": "address",
          "name": "user",
          "type": "address"
        },
        {
          "internalType": "uint256",
          "name": "amount",
          "type": "uint256"
        }
      ],
      "name": "lockCollateral",
      "outputs": [],
      "stateMutability": "nonpayable",
      "type": "function"
    },
    {
      "inputs": [],
      "name": "owner",
      "outputs": [
        {
          "internalType": "address",
          "name": "",
          "type": "address"
        }
      ],
      "stateMutability": "view",
      "type": "function"
    },
    {
      "inputs": [
        {
          "internalType": "address",
          "name": "verifiedContract",
          "type": "address"
        }
      ],
      "name": "removeVerifiedContract",
      "outputs": [],
      "stateMutability": "nonpayable",
      "type": "function"
    },
    {
      "inputs": [],
      "name": "renounceOwnership",
      "outputs": [],
      "stateMutability": "nonpayable",
      "type": "function"
    },
    {
      "inputs": [
        {
          "internalType": "address",
          "name": "user",
          "type": "address"
        },
        {
          "internalType": "uint256",
          "name": "amount",
          "type": "uint256"
        }
      ],
      "name": "slashCollateral",
      "outputs": [],
      "stateMutability": "nonpayable",
      "type": "function"
    },
    {
      "inputs": [
        {
          "internalType": "address",
          "name": "newOwner",
          "type": "address"
        }
      ],
      "name": "transferOwnership",
      "outputs": [],
      "stateMutability": "nonpayable",
      "type": "function"
    },
    {
      "inputs": [
        {
          "internalType": "address",
          "name": "user",
          "type": "address"
        },
        {
          "internalType": "uint256",
          "name": "amount",
          "type": "uint256"
        }
      ],
      "name": "unlockCollateral",
      "outputs": [],
      "stateMutability": "nonpayable",
      "type": "function"
    },
    {
      "inputs": [
        {
          "internalType": "uint256",
          "name": "amount",
          "type": "uint256"
        }
      ],
      "name": "withdraw",
      "outputs": [],
      "stateMutability": "nonpayable",
      "type": "function"
    }
  ],
  "bytecode": "0x608060405234801561001057600080fd5b506040516112da3803806112da83398101604081905261002f91610095565b600080546001600160a01b031916339081178255604051909182917f8be0079c531659141344cd1fd0a4f28419497f9722a3daafe3b4186f6b6457e0908290a350600280546001600160a01b0319166001600160a01b03929092169190911790556100c3565b6000602082840312156100a6578081fd5b81516001600160a01b03811681146100bc578182fd5b9392505050565b611208806100d26000396000f3fe608060405234801561001057600080fd5b50600436106101165760003560e01c8063715018a6116100a25780639b56d6c9116100715780639b56d6c91461024d578063b6b55f2514610276578063e1254fba14610289578063f273e93a146102b2578063f2fde38b146102c557600080fd5b8063715018a6146102045780638da5cb5b1461020c578063936bf9781461022757806399c797c51461023a57600080fd5b80632e1a7d4d116100e95780632e1a7d4d146101a5578063358826c5146101b8578063362a4dce146101cb57806347a7d107146101de5780634b4005cd146101f157600080fd5b80630dc7859e1461011b578063113033111461015c57806317f174981461017d5780631d47a62d14610192575b600080fd5b610147610129366004610fd7565b6001600160a01b031660009081526001602052604090205460ff1690565b60405190151581526020015b60405180910390f35b61016f61016a366004611052565b6102d8565b604051908152602001610153565b61019061018b366004610ff1565b61031e565b005b6101906101a0366004610ff1565b6103da565b6101906101b336600461103a565b6104b0565b6101906101c6366004610fd7565b61064d565b6101906101d936600461107d565b610728565b6101906101ec366004610ff1565b61080b565b6101906101ff366004610fd7565b610945565b6101906109b8565b6000546040516001600160a01b039091168152602001610153565b610190610235366004610ff1565b610a2c565b610190610248366004610ff1565b610aa4565b61016f61025b366004610fd7565b6001600160a01b031660009081526005602052604090205490565b61019061028436600461103a565b610b54565b61016f610297366004610fd7565b6001600160a01b031660009081526004602052604090205490565b6101906102c036600461107d565b610bcd565b6101906102d3366004610fd7565b610c93565b60006003600083856040516020016102f19291906110b1565b60405160208183030381529060405280519060200120815260200190815260200160002054905092915050565b3360009081526001602081905260409091205460ff1615151461035c5760405162461bcd60e51b81526004016103539061110c565b60405180910390fd5b6001600160a01b03821660009081526005602052604090205461037f9082610d7d565b6001600160a01b038316600081815260056020526040908190209290925590517fc7ae170c69aded6d7ec48daf0791af755bba11e11d558b57e5c932bb98ddbb06906103ce9084815260200190565b60405180910390a25050565b3360009081526001602081905260409091205460ff1615151461040f5760405162461bcd60e51b81526004016103539061110c565b6001600160a01b0382166000908152600560205260409020546104329082610d7d565b6001600160a01b0383166000908152600560209081526040808320939093556004905220546104619082610d7d565b6001600160a01b038316600081815260046020526040908190209290925590517fa69f22d963cb7981f842db8c1aafcc93d915ba2a95dcf26dcc333a9c2a09be26906103ce9084815260200190565b336000818152600560205260408120546104ea9290916004915b6001600160a01b0316815260208101919091526040016000205490610d7d565b8111156105575760405162461bcd60e51b815260206004820152603560248201527f576974686472617720616d6f756e7420686967686572207468616e20746f74616044820152741b081dda5d1a191c985dd8589b1948185b5bdd5b9d605a1b6064820152608401610353565b6105658160046000336104ca565b60046000336001600160a01b0390811682526020820192909252604001600020919091556002541663a9059cbb336040516001600160e01b031960e084901b1681526001600160a01b03909116600482015260248101849052604401602060405180830381600087803b1580156105db57600080fd5b505af11580156105ef573d6000803e3d6000fd5b505050506040513d601f19601f82011682018060405250810190610613919061101a565b5060405181815233907f884edad9ce6fa2440d8a54cc123490eb96d2768479d49ff9c7366125a9424364906020015b60405180910390a250565b6000546001600160a01b031633146106775760405162461bcd60e51b815260040161035390611158565b6001600160a01b0381166106d95760405162461bcd60e51b8152602060048201526024808201527f557361626c653a206e6577207573657220697320746865207a65726f206164646044820152637265737360e01b6064820152608401610353565b6001600160a01b0381166000818152600160208190526040808320805460ff1916909217909155517f89c66952b48f3e96bf1d8ba1b63189520fd988a6979b8b740bd5c5d8dc53e2059190a250565b3360009081526001602081905260409091205460ff1615151461075d5760405162461bcd60e51b81526004016103539061110c565b600033826040516020016107729291906110b1565b60408051601f198184030181529181528151602092830120600081815260039093529120549091506107a49085610dae565b6000828152600360205260409020556002546107cb906001600160a01b0316843087610ddb565b807f4a01ab0c53d11f1a924f6faca8cc2f2bbe9f3dd81f7252982ce826bfd502bc19856040516107fd91815260200190565b60405180910390a250505050565b3360009081526001602081905260409091205460ff161515146108405760405162461bcd60e51b81526004016103539061110c565b6001600160a01b03821660009081526005602090815260408083205460049092529091205461086e91610d7d565b8111156108d35760405162461bcd60e51b815260206004820152602d60248201527f4c6f636b20616d6f756e7420686967686572207468616e20746f74616c206c6f60448201526c18dad8589b1948185b5bdd5b9d609a1b6064820152608401610353565b6001600160a01b0382166000908152600560205260409020546108f69082610dae565b6001600160a01b038316600081815260056020526040908190209290925590517fa26b43a600355250ae61523a4d3a1269abbbbf462b22c633d629920603d05e45906103ce9084815260200190565b6000546001600160a01b0316331461096f5760405162461bcd60e51b815260040161035390611158565b6001600160a01b038116600081815260016020526040808220805460ff19169055517f8d30d41865a0b811b9545d879520d2dde9f4cc49e4241f486ad9752bc904b5659190a250565b6000546001600160a01b031633146109e25760405162461bcd60e51b815260040161035390611158565b600080546040516001600160a01b03909116907f8be0079c531659141344cd1fd0a4f28419497f9722a3daafe3b4186f6b6457e0908390a3600080546001600160a01b0319169055565b3360009081526001602081905260409091205460ff16151514610a615760405162461bcd60e51b81526004016103539061110c565b6001600160a01b038216600090815260046020526040902054610a849082610dae565b6001600160a01b0390921660009081526004602052604090209190915550565b60003382604051602001610ab99291906110b1565b60408051601f1981840301815291815281516020928301206000818152600384528281208054908290556001600160a01b038816825260049094529190912054909250610b069082610dae565b6001600160a01b038516600090815260046020908152604091829020929092555182815284917f0979dd4116350e86fbbcfce7ace65233838c3dcd364993f407b09971d6f52c6a91016107fd565b33600090815260046020526040902054610b6e9082610dae565b33600081815260046020526040902091909155600254610b9b916001600160a01b03909116903084610ddb565b60405181815233907fe1fffcc4923d04b559f4d29a8bfc6cda04eb5b0d3c460751c2402c5c5cc9109c90602001610642565b60003382604051602001610be29291906110b1565b60408051601f19818403018152918152815160209283012060008181526003909352912054909150610c149085610d7d565b6000828152600360209081526040808320939093556001600160a01b0386168252600490522054610c459085610dae565b6001600160a01b038416600090815260046020908152604091829020929092555185815283917f0979dd4116350e86fbbcfce7ace65233838c3dcd364993f407b09971d6f52c6a91016107fd565b6000546001600160a01b03163314610cbd5760405162461bcd60e51b815260040161035390611158565b6001600160a01b038116610d225760405162461bcd60e51b815260206004820152602660248201527f4f776e61626c653a206e6577206f776e657220697320746865207a65726f206160448201526564647265737360d01b6064820152608401610353565b600080546040516001600160a01b03808516939216917f8be0079c531659141344cd1fd0a4f28419497f9722a3daafe3b4186f6b6457e091a3600080546001600160a01b0319166001600160a01b0392909216919091179055565b600082821115610d9d57634e487b7160e01b600052600160045260246000fd5b610da782846111a5565b9392505050565b600080610dbb838561118d565b905083811015610da757634e487b7160e01b600052600160045260246000fd5b604080516001600160a01b0385811660248301528416604482015260648082018490528251808303909101815260849091019091526020810180516001600160e01b03166323b872dd60e01b179052610e35908590610e3b565b50505050565b6001600160a01b0382163b610e925760405162461bcd60e51b815260206004820152601f60248201527f5361666545524332303a2063616c6c20746f206e6f6e2d636f6e7472616374006044820152606401610353565b600080836001600160a01b031683604051610ead91906110d3565b6000604051808303816000865af19150503d8060008114610eea576040519150601f19603f3d011682016040523d82523d6000602084013e610eef565b606091505b509150915081610f415760405162461bcd60e51b815260206004820181905260248201527f5361666545524332303a206c6f772d6c6576656c2063616c6c206661696c65646044820152606401610353565b805115610e355780806020019051810190610f5c919061101a565b610e355760405162461bcd60e51b815260206004820152602a60248201527f5361666545524332303a204552433230206f7065726174696f6e20646964206e6044820152691bdd081cdd58d8d9595960b21b6064820152608401610353565b80356001600160a01b0381168114610fd257600080fd5b919050565b600060208284031215610fe8578081fd5b610da782610fbb565b60008060408385031215611003578081fd5b61100c83610fbb565b946020939093013593505050565b60006020828403121561102b578081fd5b81518015158114610da7578182fd5b60006020828403121561104b578081fd5b5035919050565b60008060408385031215611064578182fd5b8235915061107460208401610fbb565b90509250929050565b600080600060608486031215611091578081fd5b833592506110a160208501610fbb565b9150604084013590509250925092565b60609290921b6bffffffffffffffffffffffff19168252601482015260340190565b60008251815b818110156110f357602081860181015185830152016110d9565b818111156111015782828501525b509190910192915050565b6020808252602c908201527f557361626c653a2063616c6c6572206973206e6f74207665726966696564207560408201526b1cd95c8818dbdb9d1c9858dd60a21b606082015260800190565b6020808252818101527f4f776e61626c653a2063616c6c6572206973206e6f7420746865206f776e6572604082015260600190565b600082198211156111a0576111a06111bc565b500190565b6000828210156111b7576111b76111bc565b500390565b634e487b7160e01b600052601160045260246000fdfea2646970667358221220205d68a522084011e7373b1cf5739338d36c879dcbbbed3d27260c7c86b5a03a64736f6c63430008040033",
  "linkReferences": {},
  "deployedLinkReferences": {}
}